:100DDD00456E746572207020287072696D65293AB0
:100DED002000456E746572207120287072696D65E2
:100DFD00293A2000456E746572207075626C6963C6
:100E0D00206B6579202865293A2000456E7465723E
:100E1D0020706C61696E20746578743A2000456E9F
:100E2D006372797074696F6E3A20000D0A00446523
:0B0E3D006372797074696F6E3A2000D8
:100A4600120FAF7BFF7A0D79DD120F8A120E488ED8
:100A5600228F237BFF7A0D79EF120F8A120E488EB2
:100A6600248F25120EACC007AF23AE22120EACD0D7
:100A7600E05FF513B401CCE4F513E52524FFFDE5AD
:100A86002434FFFCE52324FFFFE52234FFFE120891
:100A960068E48F1D8E1CF51BF51AAC24AD25AE221D
:100AA600AF23120868E48F218E20F51FF51E7BFF09
:100AB6007A0E7901120F8A120E488F128E118D103E
:100AC6008C0F8F2D8E2C8D2B8C2AAF1DAE1CAD1B43
:100AD600AC1A120F068F08E508B401D2E4F5087BBC
:100AE600FF7A0E7918120F8A120E488E098F0A8520
:100AF600122D85112C85102B850F2AAF1DAE1CAD2E
:100B06001BAC1A120D4F8F0E8E0D8D0C8C0B852182
:100B16002D85202C851F2B851E2A85092E850A2FBB
:100B2600AF12AE11AD10AC0F120F59120B817BFF35
:100B36007A0E792B120F8A120F847BFF7A0E793880
:100B4600120F8A85212D85202C851F2B851E2A852F
:100B5600092E850A2FAF0EAE0DAD0CAC0B120F5938
:100B6600120B817BFF7A0E793B120F8A120F847B60
:0B0B7600FF7A0E7938120F8A020A493C
:040EAC008E268F27D8
:100EB000752802E4F52AF529AF28E4FCFDFEC006FA
:100EC000C007852737852636F535F534E52724FF15
:100ED000FFE52634FFFEE48F3B8E3AF539F538D036
:100EE00007D006120CB7EF64014E700D052A0528D5
:100EF0000529E529D3940540BFE52AC3940540039D
:050F00007F01227F00CB
:010F050022C9
:080CB7008F338E328D318C3039
:100CBF00753C00753D01AF3BAE3AAD39AC38EC4DEC
:100CCF004E4F6074E53B5401FFE4FDFCEF6023AE33
:100CDF003CAF3DE4AB33AA32A931A8301208B0AB18
:100CEF0037AA36A935A83412093BAE02AF038E3CA2
:100CFF008F3DAF33AE32AD31AC30A804A905AA0693
:100D0F00AB071208B0AB37AA36A935A83412093B86
:100D1F00AC00AD01AE02AF038F338E328D318C300C
:100D2F00AF3BAE3AAD39AC3878011209DE8F3B8E4E
:0F0D3F003A8D398C38020CC5AE3CAF3DE4FCFD5B
:010D4E002282
:080D4F008F298E288D278C26C8
:100D57008E2E8F2FAB2DAA2C900000753000753189
:050D670001EB4A6042AF
:100D6C00AE2EAF2FAD03AC0212087A8E328F33AE9B
:100D7C002EAF2FAD03AC0212087A8A2E8B2FAA0449
:100D8C00AB05AC30AD31AE32AF33120868C3E5827F
:100D9C009FFDE5839EFC853083853182F5308D3156
:100DAC0080BAC3E58364809480501BAF82AE83EE1F
:100DBC003395E0FDFCEF2529FFEE3528FEED3527B8
:100DCC00FDEC3526FC22AE83AF82EE3395E0FDFCC4
:010DDC0022F4
:080F59008F298E288D278C26BC
:100F61007D007C00AE2EAF2F852D37852C36852B4D
:100F710035852A3485293B85283A852739852638C0
:030F8100020CB7A8
:100F06008F298E288D278C26AF2DAE2CAD2BAC2AA3
:060F1600EC4D4E4F60346B
:100F1C008E2E8F2FAB2DAA2CA92BA82AAF29AE2849
:100F2C00AD27AC2612093BAC00AD01AE02AF038F6E
:100F3C002D8E2C8D2B8C2AE4852F29852E28F52798
:020F4C00F52688
:0B0F4E0080BEAF29AE28AD27AC2622E4
:0C0FAF00758920758DFD759850D28E223A
:0A0FC700C2998F993099FDC299225A
:080FD1003098FDC298AF99228F
:060F84007B007A007914E5
:100F8A008B268A278928AB26AA27A9281208006057
:100F9A00130528E5287002052714F9120800FF1224
:050FAA000FC780E222E8
:100E4800E4FEFBFA120FD1EF640D6013C3EE648069
:100E5800948950F0AD060E74262DF8A60780E57427
:100E6800262EF8E4F6F9742629F8E6FFC3943040F4
:100E78002BEFD394395025EF3395E0FEEF24D0F5CE
:100E880082EE34FFF5837C007D0AAF03AE021208C0
:100E980068EF2582FBEE3583FA0980CAAE02AF03FC
:030EA800E4FCFD6A
:010EAB002224
:0C0B81008E098F0AE4FCFDFB7A00791459
:0E0B8D008F298E288D278C268B2A8A2B892C67
:100B9B00E4F52DF52EFFFEFDFCAB29AA28A927A80D
:100BAB0026C31209CD701AAB2AAA2BA92CAF2D057F
:100BBB002DEF3395E08F82F5837430120846020CCB
:100BCB00A3E4FFFEFDFCAB29AA28A927A826D31274
:100BDB0009CD4047E47B0AFAF9F8AF29AE28AD27D7
:100BEB00AC2612093BEB2430FFAB2AAA2BA92CAE67
:100BFB002D052DEEFD3395E08D82F583EF12084622
:100C0B00AF29AE28AD27AC26E47B0AFAF9F8120916
:100C1B003B8F298E288D278C2680A6E4F52EE52D7B
:0E0C2B00A2E713C36480F8E52E648098506A37
:100C3900AB2AAA2BA92CAF2EEF3395E08F82F5832F
:100C4900120819F52FEF3395E0FEAD2DED3395E040
:100C5900FCC3ED9FFFEC9ECF24FFCF34FF8F82F5BD
:100C690083120819FFE52EFD3395E08D82F583EF98
:100C7900120846AF2EEF3395E0FEAD2DED3395E02A
:100C8900FCC3ED9FFFEC9ECF24FFCF34FF8F82F58D
:060C990083E52F1208465E
:100C9F00052E8086AB2AAA2BA92CAF2DEF3395E01A
:080CAF008F82F583E402084680
:03000000020FBB31
:0C0FBB00787FE4F6D8FD75813D020A46FF
:10080000BB010689828A83E0225002E722BBFE02F6
:09081000E32289828A83E4932229
:10081900BB010CE58229F582E5833AF583E0225094
:1008290006E92582F8E622BBFE06E92582F8E222DE
:0D083900E58229F582E5833AF583E49322F8
:10084600F8BB010DE58229F582E5833AF583E8F0E8
:10085600225006E92582C8F622BBFE05E92582C894
:02086600F2227C
:10086800EF8DF0A4A8F0CF8CF0A428CE8DF0A42EA4
:02087800FE225E
:10087A00C2D5EC30E709B2D5E4C39DFDE49CFCEE99
:10088A0030E715B2D5E4C39FFFE49EFE1209F1C317
:10089A00E49DFDE49CFC80031209F130D507C3E412
:0608AA009FFFE49EFE2208
:1008B000E88FF0A4CC8BF0A42CFCE98EF0A42CFCE7
:1008C0008AF0EDA42CFCEA8EF0A4CDA8F08BF0A465
:1008D0002DCC3825F0FDE98FF0A42CCD35F0FCEBC4
:1008E0008EF0A4FEA9F0EB8FF0A4CFC5F02ECD3989
:0F08F000FEE43CFCEAA42DCE35F0FDE43CFC22F6
:1008FF0075F008758200EF2FFFEE33FECD33CDCCB0
:10090F0033CCC58233C5829BED9AEC99E582984032
:10091F000CF582EE9BFEED9AFDEC99FC0FD5F0D60F
:10092F00E4CEFBE4CDFAE4CCF9A88222B800C1B939
:10093F000059BA002DEC8BF084CFCECDFCE5F0CB77
:10094F00F97818EF2FFFEE33FEED33FDEC33FCEBB0
:10095F0033FB10D703994004EB99FB0FD8E5E4F96B
:10096F00FA227818EF2FFFEE33FEED33FDEC33FC58
:10097F00C933C910D7059BE99A4007EC9BFCE99A4C
:10098F00F90FD8E0E4C9FAE4CCFB2275F010EF2F91
:10099F00FFEE33FEED33FDCC33CCC833C810D70791
:1009AF009BEC9AE899400AED9BFDEC9AFCE899F8CC
:0E09BF000FD5F0DAE4CDFBE4CCFAE4C8F9225F
:1009CD00EB9FF5F0EA9E42F0E99D42F0E89C45F080
:0109DD0022F7
:1009DE00E8600FECC313FCED13FDEE13FEEF13FFF7
:0309EE00D8F1221B
:1009F100BC000BBE0029EF8DF084FFADF022E4CCEA
:100A0100F875F008EF2FFFEE33FEEC33FCEE9DECB2
:100A1100984005FCEE9DFE0FD5F0E9E4CEFD22EDF8
:100A2100F8F5F0EE8420D21CFEADF075F008EF2F42
:100A3100FFED33FD4007985006D5F0F222C398FD33
:050A41000FD5F0EA22D0
:00000001FF
